{
  "_format": "hh-sol-artifact-1",
  "contractName": "NFTCollectible",
  "sourceName": "contracts/NFTCollectible.sol",
  "abi": [
    {
      "inputs": [
        {
          "internalType": "string",
          "name": "baseURI",
          "type": "string"
        }
      ],
      "stateMutability": "nonpayable",
      "type": "constructor"
    },
    {
      "anonymous": false,
      "inputs": [
        {
          "indexed": true,
          "internalType": "address",
          "name": "owner",
          "type": "address"
        },
        {
          "indexed": true,
          "internalType": "address",
          "name": "approved",
          "type": "address"
        },
        {
          "indexed": true,
          "internalType": "uint256",
          "name": "tokenId",
          "type": "uint256"
        }
      ],
      "name": "Approval",
      "type": "event"
    },
    {
      "anonymous": false,
      "inputs": [
        {
          "indexed": true,
          "internalType": "address",
          "name": "owner",
          "type": "address"
        },
        {
          "indexed": true,
          "internalType": "address",
          "name": "operator",
          "type": "address"
        },
        {
          "indexed": false,
          "internalType": "bool",
          "name": "approved",
          "type": "bool"
        }
      ],
      "name": "ApprovalForAll",
      "type": "event"
    },
    {
      "anonymous": false,
      "inputs": [
        {
          "indexed": true,
          "internalType": "address",
          "name": "previousOwner",
          "type": "address"
        },
        {
          "indexed": true,
          "internalType": "address",
          "name": "newOwner",
          "type": "address"
        }
      ],
      "name": "OwnershipTransferred",
      "type": "event"
    },
    {
      "anonymous": false,
      "inputs": [
        {
          "indexed": true,
          "internalType": "address",
          "name": "from",
          "type": "address"
        },
        {
          "indexed": true,
          "internalType": "address",
          "name": "to",
          "type": "address"
        },
        {
          "indexed": true,
          "internalType": "uint256",
          "name": "tokenId",
          "type": "uint256"
        }
      ],
      "name": "Transfer",
      "type": "event"
    },
    {
      "inputs": [],
      "name": "MAX_PER_MINT",
      "outputs": [
        {
          "internalType": "uint256",
          "name": "",
          "type": "uint256"
        }
      ],
      "stateMutability": "view",
      "type": "function"
    },
    {
      "inputs": [],
      "name": "MAX_SUPPLY",
      "outputs": [
        {
          "internalType": "uint256",
          "name": "",
          "type": "uint256"
        }
      ],
      "stateMutability": "view",
      "type": "function"
    },
    {
      "inputs": [],
      "name": "PRICE",
      "outputs": [
        {
          "internalType": "uint256",
          "name": "",
          "type": "uint256"
        }
      ],
      "stateMutability": "view",
      "type": "function"
    },
    {
      "inputs": [
        {
          "internalType": "address",
          "name": "to",
          "type": "address"
        },
        {
          "internalType": "uint256",
          "name": "tokenId",
          "type": "uint256"
        }
      ],
      "name": "approve",
      "outputs": [],
      "stateMutability": "nonpayable",
      "type": "function"
    },
    {
      "inputs": [
        {
          "internalType": "address",
          "name": "owner",
          "type": "address"
        }
      ],
      "name": "balanceOf",
      "outputs": [
        {
          "internalType": "uint256",
          "name": "",
          "type": "uint256"
        }
      ],
      "stateMutability": "view",
      "type": "function"
    },
    {
      "inputs": [],
      "name": "baseTokenURI",
      "outputs": [
        {
          "internalType": "string",
          "name": "",
          "type": "string"
        }
      ],
      "stateMutability": "view",
      "type": "function"
    },
    {
      "inputs": [],
      "name": "burnNFTs",
      "outputs": [],
      "stateMutability": "payable",
      "type": "function"
    },
    {
      "inputs": [
        {
          "internalType": "uint256",
          "name": "tokenId",
          "type": "uint256"
        }
      ],
      "name": "getApproved",
      "outputs": [
        {
          "internalType": "address",
          "name": "",
          "type": "address"
        }
      ],
      "stateMutability": "view",
      "type": "function"
    },
    {
      "inputs": [
        {
          "internalType": "address",
          "name": "owner",
          "type": "address"
        },
        {
          "internalType": "address",
          "name": "operator",
          "type": "address"
        }
      ],
      "name": "isApprovedForAll",
      "outputs": [
        {
          "internalType": "bool",
          "name": "",
          "type": "bool"
        }
      ],
      "stateMutability": "view",
      "type": "function"
    },
    {
      "inputs": [
        {
          "internalType": "uint256",
          "name": "_count",
          "type": "uint256"
        }
      ],
      "name": "mintNFTs",
      "outputs": [],
      "stateMutability": "payable",
      "type": "function"
    },
    {
      "inputs": [],
      "name": "name",
      "outputs": [
        {
          "internalType": "string",
          "name": "",
          "type": "string"
        }
      ],
      "stateMutability": "view",
      "type": "function"
    },
    {
      "inputs": [],
      "name": "owner",
      "outputs": [
        {
          "internalType": "address",
          "name": "",
          "type": "address"
        }
      ],
      "stateMutability": "view",
      "type": "function"
    },
    {
      "inputs": [
        {
          "internalType": "uint256",
          "name": "tokenId",
          "type": "uint256"
        }
      ],
      "name": "ownerOf",
      "outputs": [
        {
          "internalType": "address",
          "name": "",
          "type": "address"
        }
      ],
      "stateMutability": "view",
      "type": "function"
    },
    {
      "inputs": [],
      "name": "renounceOwnership",
      "outputs": [],
      "stateMutability": "nonpayable",
      "type": "function"
    },
    {
      "inputs": [],
      "name": "reserveNFTs",
      "outputs": [],
      "stateMutability": "nonpayable",
      "type": "function"
    },
    {
      "inputs": [
        {
          "internalType": "address",
          "name": "from",
          "type": "address"
        },
        {
          "internalType": "address",
          "name": "to",
          "type": "address"
        },
        {
          "internalType": "uint256",
          "name": "tokenId",
          "type": "uint256"
        }
      ],
      "name": "safeTransferFrom",
      "outputs": [],
      "stateMutability": "nonpayable",
      "type": "function"
    },
    {
      "inputs": [
        {
          "internalType": "address",
          "name": "from",
          "type": "address"
        },
        {
          "internalType": "address",
          "name": "to",
          "type": "address"
        },
        {
          "internalType": "uint256",
          "name": "tokenId",
          "type": "uint256"
        },
        {
          "internalType": "bytes",
          "name": "data",
          "type": "bytes"
        }
      ],
      "name": "safeTransferFrom",
      "outputs": [],
      "stateMutability": "nonpayable",
      "type": "function"
    },
    {
      "inputs": [
        {
          "internalType": "address",
          "name": "operator",
          "type": "address"
        },
        {
          "internalType": "bool",
          "name": "approved",
          "type": "bool"
        }
      ],
      "name": "setApprovalForAll",
      "outputs": [],
      "stateMutability": "nonpayable",
      "type": "function"
    },
    {
      "inputs": [
        {
          "internalType": "string",
          "name": "_baseTokenURI",
          "type": "string"
        }
      ],
      "name": "setBaseURI",
      "outputs": [],
      "stateMutability": "nonpayable",
      "type": "function"
    },
    {
      "inputs": [
        {
          "internalType": "bytes4",
          "name": "interfaceId",
          "type": "bytes4"
        }
      ],
      "name": "supportsInterface",
      "outputs": [
        {
          "internalType": "bool",
          "name": "",
          "type": "bool"
        }
      ],
      "stateMutability": "view",
      "type": "function"
    },
    {
      "inputs": [],
      "name": "symbol",
      "outputs": [
        {
          "internalType": "string",
          "name": "",
          "type": "string"
        }
      ],
      "stateMutability": "view",
      "type": "function"
    },
    {
      "inputs": [
        {
          "internalType": "uint256",
          "name": "index",
          "type": "uint256"
        }
      ],
      "name": "tokenByIndex",
      "outputs": [
        {
          "internalType": "uint256",
          "name": "",
          "type": "uint256"
        }
      ],
      "stateMutability": "view",
      "type": "function"
    },
    {
      "inputs": [
        {
          "internalType": "address",
          "name": "owner",
          "type": "address"
        },
        {
          "internalType": "uint256",
          "name": "index",
          "type": "uint256"
        }
      ],
      "name": "tokenOfOwnerByIndex",
      "outputs": [
        {
          "internalType": "uint256",
          "name": "",
          "type": "uint256"
        }
      ],
      "stateMutability": "view",
      "type": "function"
    },
    {
      "inputs": [
        {
          "internalType": "uint256",
          "name": "tokenId",
          "type": "uint256"
        }
      ],
      "name": "tokenURI",
      "outputs": [
        {
          "internalType": "string",
          "name": "",
          "type": "string"
        }
      ],
      "stateMutability": "view",
      "type": "function"
    },
    {
      "inputs": [
        {
          "internalType": "address",
          "name": "_owner",
          "type": "address"
        }
      ],
      "name": "tokensOfOwner",
      "outputs": [
        {
          "internalType": "uint256[]",
          "name": "",
          "type": "uint256[]"
        }
      ],
      "stateMutability": "view",
      "type": "function"
    },
    {
      "inputs": [],
      "name": "totalSupply",
      "outputs": [
        {
          "internalType": "uint256",
          "name": "",
          "type": "uint256"
        }
      ],
      "stateMutability": "view",
      "type": "function"
    },
    {
      "inputs": [
        {
          "internalType": "address",
          "name": "from",
          "type": "address"
        },
        {
          "internalType": "address",
          "name": "to",
          "type": "address"
        },
        {
          "internalType": "uint256",
          "name": "tokenId",
          "type": "uint256"
        }
      ],
      "name": "transferFrom",
      "outputs": [],
      "stateMutability": "nonpayable",
      "type": "function"
    },
    {
      "inputs": [
        {
          "internalType": "address",
          "name": "newOwner",
          "type": "address"
        }
      ],
      "name": "transferOwnership",
      "outputs": [],
      "stateMutability": "nonpayable",
      "type": "function"
    },
    {
      "inputs": [],
      "name": "withdraw",
      "outputs": [],
      "stateMutability": "payable",
      "type": "function"
    }
  ],
  "bytecode": "0x60806040523480156200001157600080fd5b50604051620046fc380380620046fc833981810160405281019062000037919062000511565b6040518060400160405280600c81526020017f4d494e4759555f544f4b454e00000000000000000000000000000000000000008152506040518060400160405280600381526020017f4d494e00000000000000000000000000000000000000000000000000000000008152508160009080519060200190620000bb929190620002c4565b508060019080519060200190620000d4929190620002c4565b505050620000f7620000eb6200010f60201b60201c565b6200011760201b60201c565b6200010881620001dd60201b60201c565b506200064a565b600033905090565b6000600a60009054906101000a900473ffffffffffffffffffffffffffffffffffffffff16905081600a60006101000a81548173ffffffffffffffffffffffffffffffffffffffff021916908373ffffffffffffffffffffffffffffffffffffffff1602179055508173ffffffffffffffffffffffffffffffffffffffff168173ffffffffffffffffffffffffffffffffffffffff167f8be0079c531659141344cd1fd0a4f28419497f9722a3daafe3b4186f6b6457e060405160405180910390a35050565b620001ed6200020960201b60201c565b80600c908051906020019062000205929190620002c4565b5050565b620002196200010f60201b60201c565b73ffffffffffffffffffffffffffffffffffffffff166200023f6200029a60201b60201c565b73ffffffffffffffffffffffffffffffffffffffff161462000298576040517f08c379a00000000000000000000000000000000000000000000000000000000081526004016200028f90620005c3565b60405180910390fd5b565b6000600a60009054906101000a900473ffffffffffffffffffffffffffffffffffffffff16905090565b828054620002d29062000614565b90600052602060002090601f016020900481019282620002f6576000855562000342565b82601f106200031157805160ff191683800117855562000342565b8280016001018555821562000342579182015b828111156200034157825182559160200191906001019062000324565b5b50905062000351919062000355565b5090565b5b808211156200037057600081600090555060010162000356565b5090565b6000604051905090565b600080fd5b600080fd5b600080fd5b600080fd5b6000601f19601f8301169050919050565b7f4e487b7100000000000000000000000000000000000000000000000000000000600052604160045260246000fd5b620003dd8262000392565b810181811067ffffffffffffffff82111715620003ff57620003fe620003a3565b5b80604052505050565b60006200041462000374565b9050620004228282620003d2565b919050565b600067ffffffffffffffff821115620004455762000444620003a3565b5b620004508262000392565b9050602081019050919050565b60005b838110156200047d57808201518184015260208101905062000460565b838111156200048d576000848401525b50505050565b6000620004aa620004a48462000427565b62000408565b905082815260208101848484011115620004c957620004c86200038d565b5b620004d68482856200045d565b509392505050565b600082601f830112620004f657620004f562000388565b5b81516200050884826020860162000493565b91505092915050565b6000602082840312156200052a57620005296200037e565b5b600082015167ffffffffffffffff8111156200054b576200054a62000383565b5b6200055984828501620004de565b91505092915050565b600082825260208201905092915050565b7f4f776e61626c653a2063616c6c6572206973206e6f7420746865206f776e6572600082015250565b6000620005ab60208362000562565b9150620005b88262000573565b602082019050919050565b60006020820190508181036000830152620005de816200059c565b9050919050565b7f4e487b7100000000000000000000000000000000000000000000000000000000600052602260045260246000fd5b600060028204905060018216806200062d57607f821691505b60208210811415620006445762000643620005e5565b5b50919050565b6140a2806200065a6000396000f3fe6080604052600436106101c25760003560e01c80634f6ccce7116100f75780638da5cb5b11610095578063c87b56dd11610064578063c87b56dd146105f3578063d547cfb714610630578063e985e9c51461065b578063f2fde38b14610698576101c2565b80638da5cb5b1461054b57806395d89b4114610576578063a22cb465146105a1578063b88d4fde146105ca576101c2565b806370a08231116100d157806370a082311461048f578063715018a6146104cc5780638462151c146104e35780638d859f3e14610520576101c2565b80634f6ccce7146103ec57806355f804b3146104295780636352211e14610452576101c2565b806323b872dd1161016457806334cf99fd1161013e57806334cf99fd146103935780633b4b13811461039d5780633ccfd60b146103b957806342842e0e146103c3576101c2565b806323b872dd146103025780632f745c591461032b57806332cb6b0c14610368576101c2565b8063095ea7b3116101a0578063095ea7b31461026c57806309d42b3014610295578063144100c7146102c057806318160ddd146102d7576101c2565b806301ffc9a7146101c757806306fdde0314610204578063081812fc1461022f575b600080fd5b3480156101d357600080fd5b506101ee60048036038101906101e9919061299a565b6106c1565b6040516101fb91906129e2565b60405180910390f35b34801561021057600080fd5b5061021961073b565b6040516102269190612a96565b60405180910390f35b34801561023b57600080fd5b5061025660048036038101906102519190612aee565b6107cd565b6040516102639190612b5c565b60405180910390f35b34801561027857600080fd5b50610293600480360381019061028e9190612ba3565b610813565b005b3480156102a157600080fd5b506102aa61092b565b6040516102b79190612bf2565b60405180910390f35b3480156102cc57600080fd5b506102d5610930565b005b3480156102e357600080fd5b506102ec6109c7565b6040516102f99190612bf2565b60405180910390f35b34801561030e57600080fd5b5061032960048036038101906103249190612c0d565b6109d4565b005b34801561033757600080fd5b50610352600480360381019061034d9190612ba3565b610a34565b60405161035f9190612bf2565b60405180910390f35b34801561037457600080fd5b5061037d610ad9565b60405161038a9190612bf2565b60405180910390f35b61039b610ade565b005b6103b760048036038101906103b29190612aee565b610b45565b005b6103c1610c80565b005b3480156103cf57600080fd5b506103ea60048036038101906103e59190612c0d565b610d80565b005b3480156103f857600080fd5b50610413600480360381019061040e9190612aee565b610da0565b6040516104209190612bf2565b60405180910390f35b34801561043557600080fd5b50610450600480360381019061044b9190612d95565b610e11565b005b34801561045e57600080fd5b5061047960048036038101906104749190612aee565b610e33565b6040516104869190612b5c565b60405180910390f35b34801561049b57600080fd5b506104b660048036038101906104b19190612dde565b610ee5565b6040516104c39190612bf2565b60405180910390f35b3480156104d857600080fd5b506104e1610f9d565b005b3480156104ef57600080fd5b5061050a60048036038101906105059190612dde565b610fb1565b6040516105179190612ec9565b60405180910390f35b34801561052c57600080fd5b5061053561105f565b6040516105429190612bf2565b60405180910390f35b34801561055757600080fd5b5061056061106a565b60405161056d9190612b5c565b60405180910390f35b34801561058257600080fd5b5061058b611094565b6040516105989190612a96565b60405180910390f35b3480156105ad57600080fd5b506105c860048036038101906105c39190612f17565b611126565b005b3480156105d657600080fd5b506105f160048036038101906105ec9190612ff8565b61113c565b005b3480156105ff57600080fd5b5061061a60048036038101906106159190612aee565b61119e565b6040516106279190612a96565b60405180910390f35b34801561063c57600080fd5b50610645611206565b6040516106529190612a96565b60405180910390f35b34801561066757600080fd5b50610682600480360381019061067d919061307b565b611294565b60405161068f91906129e2565b60405180910390f35b3480156106a457600080fd5b506106bf60048036038101906106ba9190612dde565b611328565b005b60007f780e9d63000000000000000000000000000000000000000000000000000000007bffffffffffffffffffffffffffffffffffffffffffffffffffffffff1916827bffffffffffffffffffffffffffffffffffffffffffffffffffffffff191614806107345750610733826113ac565b5b9050919050565b60606000805461074a906130ea565b80601f0160208091040260200160405190810160405280929190818152602001828054610776906130ea565b80156107c35780601f10610798576101008083540402835291602001916107c3565b820191906000526020600020905b8154815290600101906020018083116107a657829003601f168201915b5050505050905090565b60006107d88261148e565b6004600083815260200190815260200160002060009054906101000a900473ffffffffffffffffffffffffffffffffffffffff169050919050565b600061081e82610e33565b90508073ffffffffffffffffffffffffffffffffffffffff168373ffffffffffffffffffffffffffffffffffffffff16141561088f576040517f08c379a00000000000000000000000000000000000000000000000000000000081526004016108869061318e565b60405180910390fd5b8073ffffffffffffffffffffffffffffffffffffffff166108ae6114d9565b73ffffffffffffffffffffffffffffffffffffffff1614806108dd57506108dc816108d76114d9565b611294565b5b61091c576040517f08c379a000000000000000000000000000000000000000000000000000000000815260040161091390613220565b60405180910390fd5b61092683836114e1565b505050565b600581565b61093861159a565b6000610944600b611618565b9050606461095c600a8361162690919063ffffffff16565b1061099c576040517f08c379a00000000000000000000000000000000000000000000000000000000081526004016109939061328c565b60405180910390fd5b60005b600a8110156109c3576109b061163c565b80806109bb906132db565b91505061099f565b5050565b6000600880549050905090565b6109e56109df6114d9565b82611661565b610a24576040517f08c379a0000000000000000000000000000000000000000000000000000000008152600401610a1b90613396565b60405180910390fd5b610a2f8383836116f6565b505050565b6000610a3f83610ee5565b8210610a80576040517f08c379a0000000000000000000000000000000000000000000000000000000008152600401610a7790613428565b60405180910390fd5b600660008473ffffffffffffffffffffffffffffffffffffffff1673ffffffffffffffffffffffffffffffffffffffff168152602001908152602001600020600083815260200190815260200160002054905092915050565b606481565b6000610aea600b611618565b905060008111610b2f576040517f08c379a0000000000000000000000000000000000000000000000000000000008152600401610b2690613494565b60405180910390fd5b610b388161195d565b610b42600b611a7a565b50565b6000610b51600b611618565b90506064610b68838361162690919063ffffffff16565b1115610ba9576040517f08c379a0000000000000000000000000000000000000000000000000000000008152600401610ba090613500565b60405180910390fd5b600082118015610bba575060058211155b610bf9576040517f08c379a0000000000000000000000000000000000000000000000000000000008152600401610bf090613592565b60405180910390fd5b610c1382662386f26fc10000611ad690919063ffffffff16565b341015610c55576040517f08c379a0000000000000000000000000000000000000000000000000000000008152600401610c4c90613624565b60405180910390fd5b60005b82811015610c7b57610c6861163c565b8080610c73906132db565b915050610c58565b505050565b610c8861159a565b600047905060008111610cd0576040517f08c379a0000000000000000000000000000000000000000000000000000000008152600401610cc790613690565b60405180910390fd5b60003373ffffffffffffffffffffffffffffffffffffffff1682604051610cf6906136e1565b60006040518083038185875af1925050503d8060008114610d33576040519150601f19603f3d011682016040523d82523d6000602084013e610d38565b606091505b5050905080610d7c576040517f08c379a0000000000000000000000000000000000000000000000000000000008152600401610d7390613742565b60405180910390fd5b5050565b610d9b8383836040518060200160405280600081525061113c565b505050565b6000610daa6109c7565b8210610deb576040517f08c379a0000000000000000000000000000000000000000000000000000000008152600401610de2906137d4565b60405180910390fd5b60088281548110610dff57610dfe6137f4565b5b90600052602060002001549050919050565b610e1961159a565b80600c9080519060200190610e2f92919061288b565b5050565b6000806002600084815260200190815260200160002060009054906101000a900473ffffffffffffffffffffffffffffffffffffffff169050600073ffffffffffffffffffffffffffffffffffffffff168173ffffffffffffffffffffffffffffffffffffffff161415610edc576040517f08c379a0000000000000000000000000000000000000000000000000000000008152600401610ed39061386f565b60405180910390fd5b80915050919050565b60008073ffffffffffffffffffffffffffffffffffffffff168273ffffffffffffffffffffffffffffffffffffffff161415610f56576040517f08c379a0000000000000000000000000000000000000000000000000000000008152600401610f4d90613901565b60405180910390fd5b600360008373ffffffffffffffffffffffffffffffffffffffff1673ffffffffffffffffffffffffffffffffffffffff168152602001908152602001600020549050919050565b610fa561159a565b610faf6000611aec565b565b60606000610fbe83610ee5565b905060008167ffffffffffffffff811115610fdc57610fdb612c6a565b5b60405190808252806020026020018201604052801561100a5781602001602082028036833780820191505090505b50905060005b82811015611054576110228582610a34565b828281518110611035576110346137f4565b5b602002602001018181525050808061104c906132db565b915050611010565b508092505050919050565b662386f26fc1000081565b6000600a60009054906101000a900473ffffffffffffffffffffffffffffffffffffffff16905090565b6060600180546110a3906130ea565b80601f01602080910402602001604051908101604052809291908181526020018280546110cf906130ea565b801561111c5780601f106110f15761010080835404028352916020019161111c565b820191906000526020600020905b8154815290600101906020018083116110ff57829003601f168201915b5050505050905090565b6111386111316114d9565b8383611bb2565b5050565b61114d6111476114d9565b83611661565b61118c576040517f08c379a000000000000000000000000000000000000000000000000000000000815260040161118390613396565b60405180910390fd5b61119884848484611d1f565b50505050565b60606111a98261148e565b60006111b3611d7b565b905060008151116111d357604051806020016040528060008152506111fe565b806111dd84611e0d565b6040516020016111ee92919061395d565b6040516020818303038152906040525b915050919050565b600c8054611213906130ea565b80601f016020809104026020016040519081016040528092919081815260200182805461123f906130ea565b801561128c5780601f106112615761010080835404028352916020019161128c565b820191906000526020600020905b81548152906001019060200180831161126f57829003601f168201915b505050505081565b6000600560008473ffffffffffffffffffffffffffffffffffffffff1673ffffffffffffffffffffffffffffffffffffffff16815260200190815260200160002060008373ffffffffffffffffffffffffffffffffffffffff1673ffffffffffffffffffffffffffffffffffffffff16815260200190815260200160002060009054906101000a900460ff16905092915050565b61133061159a565b600073ffffffffffffffffffffffffffffffffffffffff168173ffffffffffffffffffffffffffffffffffffffff1614156113a0576040517f08c379a0000000000000000000000000000000000000000000000000000000008152600401611397906139f3565b60405180910390fd5b6113a981611aec565b50565b60007f80ac58cd000000000000000000000000000000000000000000000000000000007bffffffffffffffffffffffffffffffffffffffffffffffffffffffff1916827bffffffffffffffffffffffffffffffffffffffffffffffffffffffff1916148061147757507f5b5e139f000000000000000000000000000000000000000000000000000000007bffffffffffffffffffffffffffffffffffffffffffffffffffffffff1916827bffffffffffffffffffffffffffffffffffffffffffffffffffffffff1916145b80611487575061148682611f6e565b5b9050919050565b61149781611fd8565b6114d6576040517f08c379a00000000000000000000000000000000000000000000000000000000081526004016114cd9061386f565b60405180910390fd5b50565b600033905090565b816004600083815260200190815260200160002060006101000a81548173ffffffffffffffffffffffffffffffffffffffff021916908373ffffffffffffffffffffffffffffffffffffffff160217905550808273ffffffffffffffffffffffffffffffffffffffff1661155483610e33565b73ffffffffffffffffffffffffffffffffffffffff167f8c5be1e5ebec7d5bd14f71427d1e84f3dd0314c0f7b2291e5b200ac8c7c3b92560405160405180910390a45050565b6115a26114d9565b73ffffffffffffffffffffffffffffffffffffffff166115c061106a565b73ffffffffffffffffffffffffffffffffffffffff1614611616576040517f08c379a000000000000000000000000000000000000000000000000000000000815260040161160d90613a5f565b60405180910390fd5b565b600081600001549050919050565b600081836116349190613a7f565b905092915050565b6000611648600b611618565b90506116543382612044565b61165e600b612062565b50565b60008061166d83610e33565b90508073ffffffffffffffffffffffffffffffffffffffff168473ffffffffffffffffffffffffffffffffffffffff1614806116af57506116ae8185611294565b5b806116ed57508373ffffffffffffffffffffffffffffffffffffffff166116d5846107cd565b73ffffffffffffffffffffffffffffffffffffffff16145b91505092915050565b8273ffffffffffffffffffffffffffffffffffffffff1661171682610e33565b73ffffffffffffffffffffffffffffffffffffffff161461176c576040517f08c379a000000000000000000000000000000000000000000000000000000000815260040161176390613b47565b60405180910390fd5b600073ffffffffffffffffffffffffffffffffffffffff168273ffffffffffffffffffffffffffffffffffffffff1614156117dc576040517f08c379a00000000000000000000000000000000000000000000000000000000081526004016117d390613bd9565b60405180910390fd5b6117e7838383612078565b6117f26000826114e1565b6001600360008573ffffffffffffffffffffffffffffffffffffffff1673ffffffffffffffffffffffffffffffffffffffff16815260200190815260200160002060008282546118429190613bf9565b925050819055506001600360008473ffffffffffffffffffffffffffffffffffffffff1673ffffffffffffffffffffffffffffffffffffffff16815260200190815260200160002060008282546118999190613a7f565b92505081905550816002600083815260200190815260200160002060006101000a81548173ffffffffffffffffffffffffffffffffffffffff021916908373ffffffffffffffffffffffffffffffffffffffff160217905550808273ffffffffffffffffffffffffffffffffffffffff168473ffffffffffffffffffffffffffffffffffffffff167fddf252ad1be2c89b69c2b068fc378daa952ba7f163c4a11628f55a4df523b3ef60405160405180910390a461195883838361218c565b505050565b600061196882610e33565b905061197681600084612078565b6119816000836114e1565b6001600360008373ffffffffffffffffffffffffffffffffffffffff1673ffffffffffffffffffffffffffffffffffffffff16815260200190815260200160002060008282546119d19190613bf9565b925050819055506002600083815260200190815260200160002060006101000a81549073ffffffffffffffffffffffffffffffffffffffff021916905581600073ffffffffffffffffffffffffffffffffffffffff168273ffffffffffffffffffffffffffffffffffffffff167fddf252ad1be2c89b69c2b068fc378daa952ba7f163c4a11628f55a4df523b3ef60405160405180910390a4611a768160008461218c565b5050565b60008160000154905060008111611ac6576040517f08c379a0000000000000000000000000000000000000000000000000000000008152600401611abd90613c79565b60405180910390fd5b6001810382600001819055505050565b60008183611ae49190613c99565b905092915050565b6000600a60009054906101000a900473ffffffffffffffffffffffffffffffffffffffff16905081600a60006101000a81548173ffffffffffffffffffffffffffffffffffffffff021916908373ffffffffffffffffffffffffffffffffffffffff1602179055508173ffffffffffffffffffffffffffffffffffffffff168173ffffffffffffffffffffffffffffffffffffffff167f8be0079c531659141344cd1fd0a4f28419497f9722a3daafe3b4186f6b6457e060405160405180910390a35050565b8173ffffffffffffffffffffffffffffffffffffffff168373ffffffffffffffffffffffffffffffffffffffff161415611c21576040517f08c379a0000000000000000000000000000000000000000000000000000000008152600401611c1890613d3f565b60405180910390fd5b80600560008573ffffffffffffffffffffffffffffffffffffffff1673ffffffffffffffffffffffffffffffffffffffff16815260200190815260200160002060008473ffffffffffffffffffffffffffffffffffffffff1673ffffffffffffffffffffffffffffffffffffffff16815260200190815260200160002060006101000a81548160ff0219169083151502179055508173ffffffffffffffffffffffffffffffffffffffff168373ffffffffffffffffffffffffffffffffffffffff167f17307eab39ab6107e8899845ad3d59bd9653f200f220920489ca2b5937696c3183604051611d1291906129e2565b60405180910390a3505050565b611d2a8484846116f6565b611d3684848484612191565b611d75576040517f08c379a0000000000000000000000000000000000000000000000000000000008152600401611d6c90613dd1565b60405180910390fd5b50505050565b6060600c8054611d8a906130ea565b80601f0160208091040260200160405190810160405280929190818152602001828054611db6906130ea565b8015611e035780601f10611dd857610100808354040283529160200191611e03565b820191906000526020600020905b815481529060010190602001808311611de657829003601f168201915b5050505050905090565b60606000821415611e55576040518060400160405280600181526020017f30000000000000000000000000000000000000000000000000000000000000008152509050611f69565b600082905060005b60008214611e87578080611e70906132db565b915050600a82611e809190613e20565b9150611e5d565b60008167ffffffffffffffff811115611ea357611ea2612c6a565b5b6040519080825280601f01601f191660200182016040528015611ed55781602001600182028036833780820191505090505b5090505b60008514611f6257600182611eee9190613bf9565b9150600a85611efd9190613e51565b6030611f099190613a7f565b60f81b818381518110611f1f57611f1e6137f4565b5b60200101907effffffffffffffffffffffffffffffffffffffffffffffffffffffffffffff1916908160001a905350600a85611f5b9190613e20565b9450611ed9565b8093505050505b919050565b60007f01ffc9a7000000000000000000000000000000000000000000000000000000007bffffffffffffffffffffffffffffffffffffffffffffffffffffffff1916827bffffffffffffffffffffffffffffffffffffffffffffffffffffffff1916149050919050565b60008073ffffffffffffffffffffffffffffffffffffffff166002600084815260200190815260200160002060009054906101000a900473ffffffffffffffffffffffffffffffffffffffff1673ffffffffffffffffffffffffffffffffffffffff1614159050919050565b61205e828260405180602001604052806000815250612328565b5050565b6001816000016000828254019250508190555050565b612083838383612383565b600073ffffffffffffffffffffffffffffffffffffffff168373ffffffffffffffffffffffffffffffffffffffff1614156120c6576120c181612388565b612105565b8173ffffffffffffffffffffffffffffffffffffffff168373ffffffffffffffffffffffffffffffffffffffff16146121045761210383826123d1565b5b5b600073ffffffffffffffffffffffffffffffffffffffff168273ffffffffffffffffffffffffffffffffffffffff161415612148576121438161253e565b612187565b8273ffffffffffffffffffffffffffffffffffffffff168273ffffffffffffffffffffffffffffffffffffffff161461218657612185828261260f565b5b5b505050565b505050565b60006121b28473ffffffffffffffffffffffffffffffffffffffff1661268e565b1561231b578373ffffffffffffffffffffffffffffffffffffffff1663150b7a026121db6114d9565b8786866040518563ffffffff1660e01b81526004016121fd9493929190613ed7565b602060405180830381600087803b15801561221757600080fd5b505af192505050801561224857506040513d601f19601f820116820180604052508101906122459190613f38565b60015b6122cb573d8060008114612278576040519150601f19603f3d011682016040523d82523d6000602084013e61227d565b606091505b506000815114156122c3576040517f08c379a00000000000000000000000000000000000000000000000000000000081526004016122ba90613dd1565b60405180910390fd5b805181602001fd5b63150b7a0260e01b7bffffffffffffffffffffffffffffffffffffffffffffffffffffffff1916817bffffffffffffffffffffffffffffffffffffffffffffffffffffffff191614915050612320565b600190505b949350505050565b61233283836126b1565b61233f6000848484612191565b61237e576040517f08c379a000000000000000000000000000000000000000000000000000000000815260040161237590613dd1565b60405180910390fd5b505050565b505050565b6008805490506009600083815260200190815260200160002081905550600881908060018154018082558091505060019003906000526020600020016000909190919091505550565b600060016123de84610ee5565b6123e89190613bf9565b90506000600760008481526020019081526020016000205490508181146124cd576000600660008673ffffffffffffffffffffffffffffffffffffffff1673ffffffffffffffffffffffffffffffffffffffff168152602001908152602001600020600084815260200190815260200160002054905080600660008773ffffffffffffffffffffffffffffffffffffffff1673ffffffffffffffffffffffffffffffffffffffff168152602001908152602001600020600084815260200190815260200160002081905550816007600083815260200190815260200160002081905550505b6007600084815260200190815260200160002060009055600660008573ffffffffffffffffffffffffffffffffffffffff1673ffffffffffffffffffffffffffffffffffffffff16815260200190815260200160002060008381526020019081526020016000206000905550505050565b600060016008805490506125529190613bf9565b9050600060096000848152602001908152602001600020549050600060088381548110612582576125816137f4565b5b9060005260206000200154905080600883815481106125a4576125a36137f4565b5b9060005260206000200181905550816009600083815260200190815260200160002081905550600960008581526020019081526020016000206000905560088054806125f3576125f2613f65565b5b6001900381819060005260206000200160009055905550505050565b600061261a83610ee5565b905081600660008573ffffffffffffffffffffffffffffffffffffffff1673ffffffffffffffffffffffffffffffffffffffff168152602001908152602001600020600083815260200190815260200160002081905550806007600084815260200190815260200160002081905550505050565b6000808273ffffffffffffffffffffffffffffffffffffffff163b119050919050565b600073ffffffffffffffffffffffffffffffffffffffff168273ffffffffffffffffffffffffffffffffffffffff161415612721576040517f08c379a000000000000000000000000000000000000000000000000000000000815260040161271890613fe0565b60405180910390fd5b61272a81611fd8565b1561276a576040517f08c379a00000000000000000000000000000000000000000000000000000000081526004016127619061404c565b60405180910390fd5b61277660008383612078565b6001600360008473ffffffffffffffffffffffffffffffffffffffff1673ffffffffffffffffffffffffffffffffffffffff16815260200190815260200160002060008282546127c69190613a7f565b92505081905550816002600083815260200190815260200160002060006101000a81548173ffffffffffffffffffffffffffffffffffffffff021916908373ffffffffffffffffffffffffffffffffffffffff160217905550808273ffffffffffffffffffffffffffffffffffffffff16600073ffffffffffffffffffffffffffffffffffffffff167fddf252ad1be2c89b69c2b068fc378daa952ba7f163c4a11628f55a4df523b3ef60405160405180910390a46128876000838361218c565b5050565b828054612897906130ea565b90600052602060002090601f0160209004810192826128b95760008555612900565b82601f106128d257805160ff1916838001178555612900565b82800160010185558215612900579182015b828111156128ff5782518255916020019190600101906128e4565b5b50905061290d9190612911565b5090565b5b8082111561292a576000816000905550600101612912565b5090565b6000604051905090565b600080fd5b600080fd5b60007fffffffff0000000000000000000000000000000000000000000000000000000082169050919050565b61297781612942565b811461298257600080fd5b50565b6000813590506129948161296e565b92915050565b6000602082840312156129b0576129af612938565b5b60006129be84828501612985565b91505092915050565b60008115159050919050565b6129dc816129c7565b82525050565b60006020820190506129f760008301846129d3565b92915050565b600081519050919050565b600082825260208201905092915050565b60005b83811015612a37578082015181840152602081019050612a1c565b83811115612a46576000848401525b50505050565b6000601f19601f8301169050919050565b6000612a68826129fd565b612a728185612a08565b9350612a82818560208601612a19565b612a8b81612a4c565b840191505092915050565b60006020820190508181036000830152612ab08184612a5d565b905092915050565b6000819050919050565b612acb81612ab8565b8114612ad657600080fd5b50565b600081359050612ae881612ac2565b92915050565b600060208284031215612b0457612b03612938565b5b6000612b1284828501612ad9565b91505092915050565b600073ffffffffffffffffffffffffffffffffffffffff82169050919050565b6000612b4682612b1b565b9050919050565b612b5681612b3b565b82525050565b6000602082019050612b716000830184612b4d565b92915050565b612b8081612b3b565b8114612b8b57600080fd5b50565b600081359050612b9d81612b77565b92915050565b60008060408385031215612bba57612bb9612938565b5b6000612bc885828601612b8e565b9250506020612bd985828601612ad9565b9150509250929050565b612bec81612ab8565b82525050565b6000602082019050612c076000830184612be3565b92915050565b600080600060608486031215612c2657612c25612938565b5b6000612c3486828701612b8e565b9350506020612c4586828701612b8e565b9250506040612c5686828701612ad9565b9150509250925092565b600080fd5b600080fd5b7f4e487b7100000000000000000000000000000000000000000000000000000000600052604160045260246000fd5b612ca282612a4c565b810181811067ffffffffffffffff82111715612cc157612cc0612c6a565b5b80604052505050565b6000612cd461292e565b9050612ce08282612c99565b919050565b600067ffffffffffffffff821115612d0057612cff612c6a565b5b612d0982612a4c565b9050602081019050919050565b82818337600083830152505050565b6000612d38612d3384612ce5565b612cca565b905082815260208101848484011115612d5457612d53612c65565b5b612d5f848285612d16565b509392505050565b600082601f830112612d7c57612d7b612c60565b5b8135612d8c848260208601612d25565b91505092915050565b600060208284031215612dab57612daa612938565b5b600082013567ffffffffffffffff811115612dc957612dc861293d565b5b612dd584828501612d67565b91505092915050565b600060208284031215612df457612df3612938565b5b6000612e0284828501612b8e565b91505092915050565b600081519050919050565b600082825260208201905092915050565b6000819050602082019050919050565b612e4081612ab8565b82525050565b6000612e528383612e37565b60208301905092915050565b6000602082019050919050565b6000612e7682612e0b565b612e808185612e16565b9350612e8b83612e27565b8060005b83811015612ebc578151612ea38882612e46565b9750612eae83612e5e565b925050600181019050612e8f565b5085935050505092915050565b60006020820190508181036000830152612ee38184612e6b565b905092915050565b612ef4816129c7565b8114612eff57600080fd5b50565b600081359050612f1181612eeb565b92915050565b60008060408385031215612f2e57612f2d612938565b5b6000612f3c85828601612b8e565b9250506020612f4d85828601612f02565b9150509250929050565b600067ffffffffffffffff821115612f7257612f71612c6a565b5b612f7b82612a4c565b9050602081019050919050565b6000612f9b612f9684612f57565b612cca565b905082815260208101848484011115612fb757612fb6612c65565b5b612fc2848285612d16565b509392505050565b600082601f830112612fdf57612fde612c60565b5b8135612fef848260208601612f88565b91505092915050565b6000806000806080858703121561301257613011612938565b5b600061302087828801612b8e565b945050602061303187828801612b8e565b935050604061304287828801612ad9565b925050606085013567ffffffffffffffff8111156130635761306261293d565b5b61306f87828801612fca565b91505092959194509250565b6000806040838503121561309257613091612938565b5b60006130a085828601612b8e565b92505060206130b185828601612b8e565b9150509250929050565b7f4e487b7100000000000000000000000000000000000000000000000000000000600052602260045260246000fd5b6000600282049050600182168061310257607f821691505b60208210811415613116576131156130bb565b5b50919050565b7f4552433732313a20617070726f76616c20746f2063757272656e74206f776e6560008201527f7200000000000000000000000000000000000000000000000000000000000000602082015250565b6000613178602183612a08565b91506131838261311c565b604082019050919050565b600060208201905081810360008301526131a78161316b565b9050919050565b7f4552433732313a20617070726f76652063616c6c6572206973206e6f7420746f60008201527f6b656e206f776e6572206e6f7220617070726f76656420666f7220616c6c0000602082015250565b600061320a603e83612a08565b9150613215826131ae565b604082019050919050565b60006020820190508181036000830152613239816131fd565b9050919050565b7f4e6f7420656e6f756768204e4654730000000000000000000000000000000000600082015250565b6000613276600f83612a08565b915061328182613240565b602082019050919050565b600060208201905081810360008301526132a581613269565b9050919050565b7f4e487b7100000000000000000000000000000000000000000000000000000000600052601160045260246000fd5b60006132e682612ab8565b91507fffffffffffffffffffffffffffffffffffffffffffffffffffffffffffffffff821415613319576133186132ac565b5b600182019050919050565b7f4552433732313a2063616c6c6572206973206e6f7420746f6b656e206f776e6560008201527f72206e6f7220617070726f766564000000000000000000000000000000000000602082015250565b6000613380602e83612a08565b915061338b82613324565b604082019050919050565b600060208201905081810360008301526133af81613373565b9050919050565b7f455243373231456e756d657261626c653a206f776e657220696e646578206f7560008201527f74206f6620626f756e6473000000000000000000000000000000000000000000602082015250565b6000613412602b83612a08565b915061341d826133b6565b604082019050919050565b6000602082019050818103600083015261344181613405565b9050919050565b7f6e6f7468696e6720746f206275726e204e465473210000000000000000000000600082015250565b600061347e601583612a08565b915061348982613448565b602082019050919050565b600060208201905081810360008301526134ad81613471565b9050919050565b7f4e6f7420656e6f756768204e4654732100000000000000000000000000000000600082015250565b60006134ea601083612a08565b91506134f5826134b4565b602082019050919050565b60006020820190508181036000830152613519816134dd565b9050919050565b7f43616e6e6f74206d696e7420737065636966696564206e756d626572206f662060008201527f4e4654732e000000000000000000000000000000000000000000000000000000602082015250565b600061357c602583612a08565b915061358782613520565b604082019050919050565b600060208201905081810360008301526135ab8161356f565b9050919050565b7f4e6f7420656e6f75676820657468657220746f207075726368617365204e465460008201527f732e000000000000000000000000000000000000000000000000000000000000602082015250565b600061360e602283612a08565b9150613619826135b2565b604082019050919050565b6000602082019050818103600083015261363d81613601565b9050919050565b7f4e6f206574686572206c65667420746f20776974686472617700000000000000600082015250565b600061367a601983612a08565b915061368582613644565b602082019050919050565b600060208201905081810360008301526136a98161366d565b9050919050565b600081905092915050565b50565b60006136cb6000836136b0565b91506136d6826136bb565b600082019050919050565b60006136ec826136be565b9150819050919050565b7f5472616e73666572206661696c65642e00000000000000000000000000000000600082015250565b600061372c601083612a08565b9150613737826136f6565b602082019050919050565b6000602082019050818103600083015261375b8161371f565b9050919050565b7f455243373231456e756d657261626c653a20676c6f62616c20696e646578206f60008201527f7574206f6620626f756e64730000000000000000000000000000000000000000602082015250565b60006137be602c83612a08565b91506137c982613762565b604082019050919050565b600060208201905081810360008301526137ed816137b1565b9050919050565b7f4e487b7100000000000000000000000000000000000000000000000000000000600052603260045260246000fd5b7f4552433732313a20696e76616c696420746f6b656e2049440000000000000000600082015250565b6000613859601883612a08565b915061386482613823565b602082019050919050565b600060208201905081810360008301526138888161384c565b9050919050565b7f4552433732313a2061646472657373207a65726f206973206e6f74206120766160008201527f6c6964206f776e65720000000000000000000000000000000000000000000000602082015250565b60006138eb602983612a08565b91506138f68261388f565b604082019050919050565b6000602082019050818103600083015261391a816138de565b9050919050565b600081905092915050565b6000613937826129fd565b6139418185613921565b9350613951818560208601612a19565b80840191505092915050565b6000613969828561392c565b9150613975828461392c565b91508190509392505050565b7f4f776e61626c653a206e6577206f776e657220697320746865207a65726f206160008201527f6464726573730000000000000000000000000000000000000000000000000000602082015250565b60006139dd602683612a08565b91506139e882613981565b604082019050919050565b60006020820190508181036000830152613a0c816139d0565b9050919050565b7f4f776e61626c653a2063616c6c6572206973206e6f7420746865206f776e6572600082015250565b6000613a49602083612a08565b9150613a5482613a13565b602082019050919050565b60006020820190508181036000830152613a7881613a3c565b9050919050565b6000613a8a82612ab8565b9150613a9583612ab8565b9250827fffffffffffffffffffffffffffffffffffffffffffffffffffffffffffffffff03821115613aca57613ac96132ac565b5b828201905092915050565b7f4552433732313a207472616e736665722066726f6d20696e636f72726563742060008201527f6f776e6572000000000000000000000000000000000000000000000000000000602082015250565b6000613b31602583612a08565b9150613b3c82613ad5565b604082019050919050565b60006020820190508181036000830152613b6081613b24565b9050919050565b7f4552433732313a207472616e7366657220746f20746865207a65726f2061646460008201527f7265737300000000000000000000000000000000000000000000000000000000602082015250565b6000613bc3602483612a08565b9150613bce82613b67565b604082019050919050565b60006020820190508181036000830152613bf281613bb6565b9050919050565b6000613c0482612ab8565b9150613c0f83612ab8565b925082821015613c2257613c216132ac565b5b828203905092915050565b7f436f756e7465723a2064656372656d656e74206f766572666c6f770000000000600082015250565b6000613c63601b83612a08565b9150613c6e82613c2d565b602082019050919050565b60006020820190508181036000830152613c9281613c56565b9050919050565b6000613ca482612ab8565b9150613caf83612ab8565b9250817fffffffffffffffffffffffffffffffffffffffffffffffffffffffffffffffff0483118215151615613ce857613ce76132ac565b5b828202905092915050565b7f4552433732313a20617070726f766520746f2063616c6c657200000000000000600082015250565b6000613d29601983612a08565b9150613d3482613cf3565b602082019050919050565b60006020820190508181036000830152613d5881613d1c565b9050919050565b7f4552433732313a207472616e7366657220746f206e6f6e20455243373231526560008201527f63656976657220696d706c656d656e7465720000000000000000000000000000602082015250565b6000613dbb603283612a08565b9150613dc682613d5f565b604082019050919050565b60006020820190508181036000830152613dea81613dae565b9050919050565b7f4e487b7100000000000000000000000000000000000000000000000000000000600052601260045260246000fd5b6000613e2b82612ab8565b9150613e3683612ab8565b925082613e4657613e45613df1565b5b828204905092915050565b6000613e5c82612ab8565b9150613e6783612ab8565b925082613e7757613e76613df1565b5b828206905092915050565b600081519050919050565b600082825260208201905092915050565b6000613ea982613e82565b613eb38185613e8d565b9350613ec3818560208601612a19565b613ecc81612a4c565b840191505092915050565b6000608082019050613eec6000830187612b4d565b613ef96020830186612b4d565b613f066040830185612be3565b8181036060830152613f188184613e9e565b905095945050505050565b600081519050613f328161296e565b92915050565b600060208284031215613f4e57613f4d612938565b5b6000613f5c84828501613f23565b91505092915050565b7f4e487b7100000000000000000000000000000000000000000000000000000000600052603160045260246000fd5b7f4552433732313a206d696e7420746f20746865207a65726f2061646472657373600082015250565b6000613fca602083612a08565b9150613fd582613f94565b602082019050919050565b60006020820190508181036000830152613ff981613fbd565b9050919050565b7f4552433732313a20746f6b656e20616c7265616479206d696e74656400000000600082015250565b6000614036601c83612a08565b915061404182614000565b602082019050919050565b6000602082019050818103600083015261406581614029565b905091905056fea264697066735822122074283561364f1821b029e9187b2125155762408743b497f5bb7c3a062eb1f93a64736f6c63430008090033",
  "linkReferences": {},
  "deployedLinkReferences": {}
}